{
  "contractName": "PessoasNaSala",
  "abi": [
    {
      "inputs": [],
      "payable": false,
      "stateMutability": "nonpayable",
      "type": "constructor"
    },
    {
      "constant": false,
      "inputs": [],
      "name": "checkin",
      "outputs": [],
      "payable": false,
      "stateMutability": "nonpayable",
      "type": "function"
    },
    {
      "constant": true,
      "inputs": [],
      "name": "quantidade",
      "outputs": [
        {
          "name": "",
          "type": "uint256"
        }
      ],
      "payable": false,
      "stateMutability": "view",
      "type": "function"
    }
  ],
  "bytecode": "0x608060405234801561001057600080fd5b5033600160006101000a81548173ffffffffffffffffffffffffffffffffffffffff021916908373ffffffffffffffffffffffffffffffffffffffff16021790555060f8806100606000396000f3fe6080604052348015600f57600080fd5b506004361060325760003560e01c80637e43b9f5146037578063baeb0718146053575b600080fd5b603d605b565b6040518082815260200191505060405180910390f35b60596064565b005b60008054905090565b600160009054906101000a900473ffffffffffffffffffffffffffffffffffffffff1673ffffffffffffffffffffffffffffffffffffffff163373ffffffffffffffffffffffffffffffffffffffff16141560be57600080fd5b60016000540160008190555056fea165627a7a723058203508ed74603783c560be9fff5fbf63b1e326142068fad2de7467386aabf03e990029",
  "source": "pragma solidity 0.5.8;\n\ncontract PessoasNaSala {\n    uint quantidadeDePessoas;\n    address criadorDoContrato;\n\n    constructor() public {\n        criadorDoContrato = msg.sender;\n    }\n\n    function checkin() public {\n        require(msg.sender != criadorDoContrato);\n        quantidadeDePessoas = quantidadeDePessoas+1;\n    }\n\n    function quantidade() public view returns (uint) {\n        return quantidadeDePessoas;\n    }\n}",
  "sourcePath": "/Users/faustovanin/Projects/OnePercent/dev/workshop-ethereum/contracts/PessoasNaSala.sol",
  "compiler": {
    "name": "solc",
    "version": "0.5.8+commit.23d335f2.Emscripten.clang"
  },
  "schemaVersion": "3.0.11",
  "updatedAt": "2019-10-19T16:00:27.618Z",
  "devdoc": {
    "methods": {}
  },
  "userdoc": {
    "methods": {}
  }
}